:1000000080314B28080001347E1480318B1E092872
:100010000A2812280B1D0D280E2812288B31652363
:10002000803149280B1E152816281E288B1C1928DC
:100030001A281E288A31BE22803149288B1D21288A
:1000400022282A280B1C252826282A288A31B22271
:10005000803149280B1F2D282E2849282100921C69
:10006000322833283B282000921C372838283B2888
:100070008B31562380312100111C3F28402849280C
:100080002000111C4428452849288B31D823803171
:1000900049287E10090080314D28803103208031AD
:1000A000FA00083084008C308500B93086000030BA
:1000B000870019308B3109238031AD3084008B30BB
:1000C0008500403086000130870014308B310923D1
:1000D0008031F801F901A03084000030850019302A
:1000E0008B310323803120308400013085002030A3
:1000F0008B3103238031A030840001308500213012
:100100008B31032380317E1020008431622C21004A
:10011000E700F301F40100308B31C12380316D2BF6
:100120007803031D94289528CA280130E30700307E
:10013000E43D6408803AE50080306502031DA22892
:100140000A306302031CA528A628AF280930210025
:10015000E3000030E4008F3185278031B2288C31F4
:10016000C624803121006335BE3E86008701403FB2
:100170002000B900413FBA008E311C26803120009A
:100180003808BC003708BB008331BD23803187317C
:10019000A427803102307806031DCF28D028FF28FD
:1001A00001302100E1070030E23D6208803AE500BD
:1001B00080306502031DDE280A306102031CE1283D
:1001C000E228EB2809302100E1000030E2008F3105
:1001D00085278031EE288C31C6248031210061359D
:1001E000403E860001308700403F2000B700413F7D
:1001F000B8008631DE2680318731A4278031780827
:10020000031D0329042907298F31852780310330F5
:100210007806031D0C290D29A32B8F3185278031EA
:10022000A32B7803031D152916293F29FF30E30767
:10023000FF30E43DE41F1D291E292429E301E401C8
:100240008F318527803127298C317F24803121000F
:100250006335BE3E86008701403F2000B900413F24
:10026000BA008E311C26803120003808BC003708C7
:10027000BB008331BD2380318731A4278031023018
:100280007806031D442945296829FF302100E1072C
:10029000FF30E23DE21F4D294E295429E101E201E0
:1002A0008F318527803157298C317F24803121007F
:1002B0006135403E860001308700403F2000B70096
:1002C000413FB8008631DE2680318731A427803156
:1002D0007808031D6C296D2970298F31852780319D
:1002E00003307806031D75297629A32B0D298D313E
:1002F00062258031A32B8D3111258031A32B023053
:100300007806031D842985299629220041082000AA
:10031000B800220040082000B7008631DE26803178
:100320002100E101E2018C31EB2480317803031DCF
:100330009A299B29A32B21003F082000BA00210005
:100340003E082000B9008E311C268031200038087C
:10035000BC003708BB008331BD2380312100E3019D
:10036000E4018D3139258031A32B02307806031D3D
:10037000BA29BB29CE29220043082000B800220058
:1003800042082000B7008631DE268031013021008E
:10039000E1000030E2008C31EB2480317803031D52
:1003A000D229D329A32B210041082000BA00210023
:1003B00040082000B9008E311C268031200038080A
:1003C000BC003708BB008331BD23803101302100E0
:1003D000E3000030E400B12902307806031DF12962
:1003E000F229052A220045082000B800220044080E
:1003F0002000B7008631DE26803102302100E10086
:100400000030E2008C31EB2480317803031D092A8F
:100410000A2AA32B210043082000BA002100420829
:100420002000B9008E311C26803120003808BC0025
:100430003708BB008331BD23803102302100E30047
:100440000030E400B12902307806031D282A292A49
:100450003C2A220047082000B8002200460820005D
:10046000B7008631DE26803103302100E100003004
:10047000E2008C31EB2480317803031D402A412AAD
:10048000A32B210045082000BA00210044082000C9
:10049000B9008E311C26803120003808BC00370896
:1004A000BB008331BD23803103302100E3000030E5
:1004B000E400B12902307806031D5F2A602A732AFE
:1004C000220049082000B800220048082000B70098
:1004D0008631DE26803104302100E1000030E20068
:1004E0008C31EB2480317803031D772A782AA32BE3
:1004F000210047082000BA00210046082000B9006A
:100500008E311C26803120003808BC003708BB0023
:100510008331BD23803104302100E3000030E4004A
:10052000B12902307806031D962A972AAA2A2200AA
:100530004B082000B80022004A082000B70086318E
:10054000DE26803105302100E1000030E2008C31F0
:10055000EB2480317803031DAE2AAF2AA32B2100A0
:1005600049082000BA00210048082000B9008E3157
:100570001C26803120003808BC003708BB008331BE
:10058000BD23803105302100E3000030E400B129B3
:1005900002307806031DCD2ACE2AE12A22004D081A
:1005A0002000B80022004C082000B7008631DE266B
:1005B000803106302100E1000030E2008C31EB2474
:1005C00080317803031DE52AE62AA32B21004B087E
:1005D0002000BA0021004A082000B9008E311C26F4
:1005E000803120003808BC003708BB008331BD23B0
:1005F000803106302100E3000030E400B1290230F0
:100600007806031D042B052B182B22004F08200011
:10061000B80022004E082000B7008631DE26803167
:1006200007302100E1000030E2008C31EB24803102
:100630007803031D1C2B1D2BA32B21004D0820002C
:10064000BA0021004C082000B9008E311C268031F0
:1006500020003808BC003708BB008331BD2380313F
:1006600007302100E3000030E400B12902307806B1
:10067000031D3B2B3C2B4F2B220051082000B800C0
:10068000220050082000B7008631DE268031083075
:100690002100E1000030E2008C31EB24803178034E
:1006A000031D532B542BA32B21004F082000BA000D
:1006B00021004E082000B9008E311C268031200018
:1006C0003808BC003708BB008331BD2380310830B7
:1006D0002100E3000030E400B12921006708033E57
:1006E000860087010108E500E6016608003A031963
:1006F0007A2BA32B6508083A03197F29183A0319A6
:100700007B29083A0319C82A303A0319232A603A88
:100710000319EC29183A03197729083A0319362BDB
:10072000303A0319912AE03A0319B529103A03190E
:10073000FF2A383A03199028083A03195A2A183A16
:1007400003191129A32BF301F40100308B31C123CC
:10075000803106302100E6001330E500AD30890B12
:10076000AF2BE50BAF2BE60BAF2B0032F301F401FF
:1007700000308B31C1238031080000302000AB00F5
:100780000030AA000330A900E830A800F430BD0012
:100790000130BE000030BF000030C0003908A000AA
:1007A0003A08A100890D893B8909A200A300003005
:1007B000A7000030A6001230A5005C30A4008E31E6
:1007C0004F26833120002008BD072108BE3D2208A6
:1007D000BF3D2308C03D4008AF003F08AE003E08C3
:1007E000AD003D08AC008431F82483312000280896
:1007F0003B02C50029083C3BC6003B08A8003C085A
:10080000A900890D893B8909AA00AB000230F300D9
:100810000030F4003C08F6003B08F500873144271F
:10082000833173082000BD007408BE000030BE1B79
:10083000FF30BF00C0004508C1004608C2000030BC
:10084000C21BFF30C300C4000830C135C20DC30D48
:10085000C40D890B252C4108BD074208BE3D430845
:10086000BF3D4408C03D4008AF003F08AE003E0811
:10087000AD003D08AC008431F82483312000290804
:10088000C8002808C7004808803ABD0081303D02F2
:10089000031D4C2C00304702031C4F2C502C552CB0
:1008A000FF302000C7000030C8002000C81F592CAE
:1008B0005A2C5C2CC701C8014708BD003D08210027
:1008C000B10008008C31A12484318B31492384315B
:1008D0008A31CD2284318A31B62284318A31BA22DA
:1008E00084318F31412784318C313D248431210082
:1008F0006335BE3E86008701403F2000B900413F7E
:10090000BA008E311C26843120003808BC0037081C
:10091000BB008331BD23843121006135403E860018
:1009200001308700403F2000B700413FB8008631CA
:10093000DE2684318B170B178E31832684312100FC
:10094000E901EA018E311C2684312000380821009B
:10095000EC00200037082100EB006C08803AE8002A
:1009600087306802031DB62CD0306B020318B92CF7
:10097000BA2CC02C01302100E9070030EA3DC32C1D
:100980002100E901EA016A08803AE800A73068021C
:10099000031DCC2C11306902031CCF2CD02CD32C7E
:1009A0008D318C25843121006335BE3E8600870160
:1009B000403F2000B900413FBA0021006C082000F0
:1009C000BC0021006B082000BB008331BD238431B3
:1009D000023021003406031DEE2CEF2CA22CB33084
:1009E0008031872084312100B401A22C80314B2832
:1009F0002000B201AB1FFD2CFE2C0B2DA809A9096C
:100A0000AA09AB09A80A0319A90A0319AA0A031912
:100A1000AB0AB201B20AAF1F0E2D0F2D1E2DAC096D
:100A2000AD09AE09AF09AC0A0319AD0A0319AE0A44
:100A30000319AF0A0130B0003008B2060030B6002A
:100A40000030B5000030B4000030B3002B082A0499
:100A50002904280403192D2D2E2D6F2DB101B10A63
:100A60003C2D0130A835A90DAA0DAB0D890B322DF7
:100A70000130B0003008B107AB1F3F2D402D312DA4
:100A80000130B335B40DB50DB60D890B412D2B08D2
:100A90002F02031D552D2A082E02031D552D29084E
:100AA0002D02031D552D28082C02031C582D592DED
:100AB000622D2808AC022908AD3B2A08AE3B2B0862
:100AC000AF3B33140130AB36AA0CA90CA80C890B30
:100AD000632D0130B102031D6E2D6F2D402D3208A4
:100AE0000319732D742D7F2DB309B409B509B60907
:100AF000B30A0319B40A0319B50A0319B60A36086A
:100B0000AB003508AA003408A9003308A800080083
:100B10002000AC00250886008701403FA700413F28
:100B2000A80027088400280885001200253A031D24
:100B30009A2D9B2DE22D2508860087010130810723
:100B400041310318810A2100A201A301A601A701D6
:100B5000FF30A400FF30A500200025088600870193
:100B6000403FA700413FA8002708840028088500CF
:100B70001200253A031DBD2DBE2DD72D2508860058
:100B800087010130810741310318810A2530F500C2
:100B90000030F6002C08A7002708F7008E31BF268A
:100BA000853101302000A5000030A600052E250863
:100BB000860087010130810741310318810AA501B0
:100BC000A601052E250886008701403FA700413F6A
:100BD000A80027088400280885000008A900AA01A9
:100BE0002908F5002A08F6002C08AB002B08F700AE
:100BF0008E31BF268531200025088600870101300F
:100C0000810741310318810AD12D0800E03020000E
:100C10002005A6000F302105A70000308B1B0130F6
:100C2000A80027082106031D172E260820060319F1
:100C30001A2E1B2E1C2E712E8B132108F400200857
:100C4000F3008C31212486312300151315159516D8
:100C50002000A90120082300910020002108230082
:100C60009200200029352207A3002308860087016F
:100C7000010823009300200029352207A300230840
:100C800086008701403FA400413FA50025082300BE
:100C900094001F3020002906031D4F2E502E522E87
:100CA00023009512553023009600AA309600951423
:100CB0000000000001302000A0070030A13D0130FD
:100CC000A3002308A90720302902031C682E692EDF
:100CD0002A2E230015112000280C031C8B13031847
:100CE0008B17080020001508F0007008F20095012D
:100CF0000B1D7B2E7C2E7D2EF2010B11C82EB430E5
:100D00007202031C842E852EDC2EF430720203182E
:100D10008A2E8B2EDC2EB301B401B40ADC2E0130F6
:100D2000B535B60DB70DB80D890B902E1D3072027A
:100D3000031C9B2E9C2EA82E2A3072020318A12E73
:100D4000A22EA82E35140130F0007008B307B72E7C
:100D50000E307202031CAD2EAE2EB52E153072026F
:100D60000318B32EB42EB52EA32EB401DC2E2030E2
:100D70003306031DBC2EBD2EDC2E35093606031DA1
:100D8000C22EC32EB52E0230F0007008B400DC2E47
:100D900021003408F000F1017108003A0319D12E46
:100DA000B52E7008003A03197F2E013A03198F2ED1
:100DB000033A0319DC2EB52E8B10080020003708EB
:100DC000A0003808A100890D893B8909A200A30071
:100DD0000030A7000030A6000030A5006030A4005D
:100DE0008E314F26863120002308AB002208AA004E
:100DF0002108A9002008A8000030AF000F30AE0085
:100E00004230AD004030AC008431F82486312000FF
:100E10002908BB002808BA003B08803AB900813095
:100E20003902031D152F00303A02031C182F192F09
:100E30001E2FFF302000BA000030BB0020003B080E
:100E4000803AB90080303902031D282F44303A021D
:100E500003182B2F2C2F312F44302000BA000030E4
:100E6000BB008B1320003A088A31C822863120004B
:100E700037083804031D3D2F3E2F412FFA01FA0A8F
:100E8000422FFA018B1708002000A101F41F492FFF
:100E90004A2F512FF309F409F30A0319F40AA101A7
:100EA000A10AF61F542F552F5E2FF509F609F50AF2
:100EB0000319F60A0130F7007708A106A201A30181
:100EC000730874040319652F662F952FA001A00ADB
:100ED000722F0130F335F40D890B6A2F0130F700C2
:100EE0007708A007F41F752F762F692F0130A235E0
:100EF000A30D890B772F74087602031D812F7308C9
:100F00007502031C842F852F8A2F7308F50274083D
:100F1000F63B22140130F436F30C890B8B2F013091
:100F2000A002031D942F952F762F21080319992FC6
:100F30009A2F9F2FA209A309A20A0319A30A230823
:100F4000F4002208F30008002000EE01AE01AF011A
:100F50000130AA002A08EE0720306E02031CB12FD0
:100F6000B22FA62FEF01FF30210063052000AA0059
:100F70000030210064052000AB0000302A04AE00E0
:100F800034302B04AF000130AA002A08EF07FF30ED
:100F9000210061052000AA00003021006205200028
:100FA000AB0000302A04AC0034302B04AD006F35A8
:100FB0002E3E860087012C08C03F2D08C13F01301E
:100FC000AA002A08EF0700307A04AA003430AB00E8
:100FD0006F352E3E860087012A08C03F2B08C13F8F
:100FE0000130AA002A08EF07E030A0000F30A1006E
:100FF0002E30AA002A08A200863106268731080072
:101000000A342034633475347234723465346E3487
:1010100074342034763461346C347534653420345F
:10102000733465346C3465346334743465346434D7
:1010300000340A34203472346534733465347434C3
:101040002034763461346C34753465342034733430
:1010500065346C346534633474346534643400341A
:101060000A3420344634723465347134753465344E
:101070006E34633479342034733465346C346534BD
:10108000633474346534643400340A342034643492
:1010900065346334723465346134733465342034B8
:1010A000733465346C346534633474346534643457
:1010B00000340A34203469346E3463347234653455
:1010C0006134733465342034733465346C3465347E
:1010D000633474346534643400340A342034633443
:1010E00075347234723465346E347434203473342D
:1010F00065346C346534633474346534643400347A
:08110000D03407341034273409
:101564000800210097010800C2302A0091000800F9
:10157400C2302A00950008008B108B313C238A313D
:101584000800F0007008220099000800F3007308B6
:10159400280096000800803022009800FF3099004F
:1015A400080074082100DB007308DA0008007408DE
:1015B4002100DF007308DE00080074082100DD004C
:1015C4007308DC00080074082100D9007308D800EF
:1015D400080074082100D7007308D60008007408B6
:1015E4002100D3007308D200080074082100D5003C
:1015F4007308D4000800F40074088B3126238A3160
:101604000800640080010131890B042B0034FE00C2
:1016140012001E00FE0B0A2B003420001810FF30AD
:101624008A31C3228B3108006A30210099009A0163
:101634009801220096010800FF3020009B009A01C7
:10164400911006309C000800F3002000111E2B2B83
:101654002C2B272B730823009A0008008B102100E1
:1016640015137230F3000630F4008A31E5228B3111
:101674000B1608002100580859040319422B432B68
:10168400482B59088A0058080A008B3108002100A9
:101694000D130E100C128E108E1322000D170E1443
:1016A4000C168E148E170800200092102100540886
:1016B400550403195E2B5F2B642B55088A005408CC
:1016C4000A008B3108000B117908200095002100D5
:1016D4005608570403196F2B702B752B57088A0073
:1016E40056080A008B31080021001508C039153846
:1016F400950020009501F9010B118B120230F300C3
:101704000030F4008A31EB228B310800373020009E
:10171400B7003708B8003608AE003508AD003830D9
:10172400B7003708AF0000308D31B8258B31080081
:101734000430280096009501200092102100921494
:10174400FF30F3000E30F4008A31F7228B3116306B
:101754002800970008000034003401340034413478
:101764000034463400344B34003450340034643490
:10177400003478340034823400348C340034F6007D
:101784007408031DC62BC72BCA2B21008E16CF2B22
:10179400DF30F500750821008E05740925009100DD
:1017A40076082C00980073089B0008002000111094
:1017B40021006008F100F20171082000960072080F
:1017C40097002100520853040319E92BEA2BEF2B4D
:1017D40053088A0052080A008B310800FF302000A9
:1017E4009700F8309600F830F50075082100E00005
:1017F4002000111021001114200018100F30F300E4
:101804000B30F4008A31F1228B3108000A340034A1
:101814000A3400340134003400341E3400343234C9
:101824000034463400345A3400346E340034823484
:101834000034A0340034DC340034FA340034003092
:101844008B1B0130F5008B1373082300910074087F
:10185400920015131516151555309600AA309600EA
:1018640095140000000023001511750C031C8B1344
:1018740003188B170800E03084008F3085000008BF
:10188400F300F40173082100E3007408E400E1307C
:1018940084008F3085000008F300F4017308E10030
:1018A4007408E200E23084008F3085000008F30001
:1018B4007308FA000800083023009F0090309D0050
:1018C40024309E0008309B009C010030F30000305F
:1018D400F4008A31D9228C310030F3000030F40056
:1018E4008A31DF228C310030F3000030F4008A3179
:1018F400D3228C312100B2010800A0302000B900AD
:101904003908F300F40182308B31C1238C318230E9
:101914002000B900DD30890B8D2CB90B8D2C0032E1
:10192400F301F40100308B31C1238C3145302000A8
:10193400B5008830B6008B3188238C3108008D3196
:10194400E9258C318B3116238C318A31B3228C31C9
:101954008A31CD228C318A31B6228C318B319A2353
:101964008C318A31BA228C318B31F0238C318B311A
:101974001E238C318B3130238C318B3176238C3187
:101984008C315D248C31080032302000B9003908D4
:10199400F300FF30BA003A08F40000308B31C12361
:1019A4008C3182302000B900DD30890BD72CB90B83
:1019B400D72C0032F301F40100308B31C1238C3178
:1019C40059302000B5008830B6008B3188238C3123
:1019D4000800F301FF302000B9003908F400643036
:1019E4008B31C1238C3103302000BA008A30B90016
:1019F4005530890BFB2CB90BFB2CBA0BFB2C00329A
:101A0400F301F40100308B31C1238C31003020000C
:101A1400B5008830B6008B3188238C310800F8017A
:101A2400F80AF301FF302000B9003908F40000304F
:101A34008B31C1238D3106302000BA001330B90038
:101A4400AD30890B232DB90B232DBA0B232D003276
:101A5400F301F40100308B31C1238D316D3020004E
:101A6400B5008830B6008B3188238D3108004630AC
:101A74002000B9003908F3006430BA003A08F400D1
:101A840096308B31C1238D3103302000BA008A3067
:101A9400B9005530890B4C2DB90B4C2DBA0B4C2D7C
:101AA4000032F301F40100308B31C1238D31003059
:101AB4002000B5008830B6008B3188238D310800B2
:101AC40002302000B9003908F8009630B90039080E
:101AD400F300F40100308B31C1238D310630200036
:101AE400BA001330B900AD30890B762DB90B762DC1
:101AF400BA0B762D0032F301F40100308B31C1238F
:101B04008D3130302000B5008830B6008B31882309
:101B14008D31080003302000A0002008F800F301F4
:101B2400F401FF308B31C1238D3102302000A1003C
:101B34004530A000A930890B9D2DA00B9D2DA10B34
:101B44009D2D0032F301F40100308B31C1238D311E
:101B540003302000A1008A30A0005530890BB02D3D
:101B6400A00BB02DA10BB02D003208002000B20054
:101B74002E08B4002D08B3002100A001A101D62D28
:101B84003330B0003008A5002F08B1003108A6009A
:101B94003208853188258D31200025082100A007D1
:101BA400200026082100A13D2000330884003408C9
:101BB40085001200031DDF2DE02DC22D2100210818
:101BC4002000AE00210020082000AD000800220003
:101BD4008C018D018E01043021008C0030308D0089
:101BE40050308E00403023008E0010308D008C0168
:101BF40024008D018C018E012100951325008C0198
:101C04008D018E01373026008C00F0308D00FF30BE
:101C14008E003F3027008C00F0308D00FF308E00A6
:101C24008B1502303C0090000D30A40014303D00B0
:101C34009F0008008130220097007D3021009D0024
:101C440090309E002200171F282E292E242E0000DB
:101C5400000000000000000021009D149D18332E98
:101C6400342E302E1D101B082000A80021001C0853
:101C74002000A900AA01AB010030AF000F30AE0074
:101C8400FC30AD000030AC008431F8248E312000EB
:101C94002908B8002808B70008000030F600003012
:101CA400F5000030F4000030F3002000201C5B2E0F
:101CB4005C2E642E2408F3072508F43D2608F53D20
:101CC4002708F63D0130A435A50DA60DA70D890BF7
:101CD400652E0130A336A20CA10CA00C890B6C2E2E
:101CE4002308220421042004031D792E7A2E572E62
:101CF4007608A3007508A2007408A1007308A00068
:101D04000800F8012000A201A301B4302000A000C3
:101D14002008F300E630A1002108F40000308B31E4
:101D2400C1238E3182302000A000DD30890B982E33
:101D3400A00B982E0032F301F40100308B31C12343
:101D44008E3182302000A000DD30890BA72EA00B3D
:101D5400A72E003201302000A2070030A33D230843
:101D6400803AA00080302002031DBA2E05302202E2
:101D7400031CBD2EBE2E872E080077080319C32E20
:101D8400C42EC92E7708031DC82EC92ECE2E750861
:101D94008A31FD228E31FE2E7708033E86008701AC
:101DA400160001040319D72ED82EF62E7708033E09
:101DB40086008701403F2000A000413FA100770A30
:101DC40086008701403FA200413FA3002308803AD8
:101DD400A4002108803A2402031DF22E20082202C6
:101DE4000318F52EF62EFE2E770A860087010130A1
:101DF400810741310318810A08007A080319032F67
:101E0400042F092FFF308A31C3228E31402F210045
:101E14003D0803190E2F0F2F152FBD01FF308A31F6
:101E2400C3228E31342F2800160A031D1A2F1B2FAC
:101E34002D2F513021003006031D212F222F282F52
:101E440031088A31C3228E312100B0010130F10002
:101E54007108B007342F2100BD01BD0A31088A3151
:101E6400C3228E31FF3020009700F83096001814FA
:101E740022000D130E100C128E108E130800FF306A
:101E840020009B001C08FC3902389C001C15210012
:101E94000E160E303D00A400CF3025009E052C0008
:101EA40098013F3097051916EF30F30073082100AD
:101EB4008E052C00991721008C160F303D009500DB
:101EC4003F3025009E052C009B013F309A051C16CF
:101ED400DF30F300730821008C052C009C172100CF
:101EE4008E160C303D00A50025001308F0390C387F
:101EF4009300FF30910030309304DF30F300730817
:101F040021008E050800B4302000A0002008F30052
:101F1400E630A1002108F40000308B31C1238F3159
:101F240003302000A1008A30A0005530890B982F7F
:101F3400A00B982FA10B982F0032F301F40100306D
:101F44008B31C1238F3103302000A1008A30A000DF
:101F54005530890BAB2FA00BAB2FA10BAB2F00324D
:101F6400B4302000A0002008F300E630A1002108CE
:101F7400F40000308B31C1238F3103302000A100E5
:101F84008A30A0005530890BC52FA00BC52FA10B9B
:101F9400C52F0032F301F40100308B31C1238F319E
:101FA40003302000A1008A30A0005530890BD82FBF
:101FB400A00BD82FA10BD82F00320800053403340E
:101FC400003400340034003400340034003400346D
:101FD400003400340034003400340034003400345D
:101FE400003400340034003400340034003400344D
:0C1FF400003400340034003400340034A9
:020000040001F9
:04000E00EC21FF3EA4
:00000001FF
