:1000000080314B28080001347E1480318B1E092872
:100010000A2812280B1D0D280E2812288B31552373
:10002000803149280B1E152816281E288B1C1928DC
:100030001A281E288A31AD22803149288B1D21289B
:1000400022282A280B1C252826282A288A31A12282
:10005000803149280B1F2D282E2849282100921C69
:10006000322833283B282000921C372838283B2888
:100070008B31462380312100111C3F28402849281C
:100080002000111C4428452849288B31B123803198
:1000900049287E10090080314D28803103208031AD
:1000A000FA00F73084008B308500BA3086000030CB
:1000B00087001A308A31F82280319D3084008B30DD
:1000C0008500403086000130870014308A31F822E4
:1000D0008031F801F901A0308400003085001A3029
:1000E0008A31F222803120308400013085002030B6
:1000F0008A31F2228031A030840001308500213025
:100100008A31F22280317E1020008431642C21005B
:10011000EA00F301F40100308B31C82380316D2BEC
:100120007803031D94289528CA280130E60700307B
:10013000E73D6708803AE80080306802031DA22886
:100140000A306602031CA528A628AF280930210022
:10015000E6000030E7008F3129278031B2288C314A
:10016000B624803121006635C03E86008701403FBD
:100170002000B900413FBA008E310C2680312000AA
:100180003808BC003708BB008331BD2380318F3174
:100190008427803102307806031DCF28D028FF281D
:1001A00001302100E4070030E53D6508803AE800B1
:1001B00080306802031DDE280A306402031CE12837
:1001C000E228EB2809302100E4000030E5008F31FF
:1001D00029278031EE288C31B62480312100643506
:1001E000403E860001308700403F2000B700413F7D
:1001F000B8008631E02680318F318427803178083D
:10020000031D0329042907298F3129278031033051
:100210007806031D0C290D29A32B8F312927803146
:10022000A32B7803031D152916293F29FF30E60764
:10023000FF30E73DE71F1D291E292429E601E701BC
:100240008F312927803127298C316F24803121007B
:100250006635C03E86008701403F2000B900413F1F
:10026000BA008E310C26803120003808BC003708D7
:10027000BB008331BD2380318F3184278031023030
:100280007806031D442945296829FF302100E40729
:10029000FF30E53DE51F4D294E295429E401E501D4
:1002A0008F312927803157298C316F2480312100EB
:1002B0006435403E860001308700403F2000B70093
:1002C000413FB8008631E02680318F31842780316C
:1002D0007808031D6C296D2970298F3129278031F9
:1002E00003307806031D75297629A32B0D298D313E
:1002F00052258031A32B8D3101258031A32B023073
:100300007806031D842985299629220041082000AA
:10031000B800220040082000B7008631E026803176
:100320002100E401E5018C31DB2480317803031DD9
:100330009A299B29A32B210041082000BA00210003
:1003400040082000B9008E310C268031200038088A
:10035000BC003708BB008331BD2380312100E6019A
:10036000E7018D3129258031A32B02307806031D4A
:10037000BA29BB29CE29220043082000B800220058
:1003800042082000B7008631E0268031013021008C
:10039000E4000030E5008C31DB2480317803031D5C
:1003A000D229D329A32B210043082000BA00210021
:1003B00042082000B9008E310C2680312000380818
:1003C000BC003708BB008331BD23803101302100E0
:1003D000E6000030E700B12902307806031DF1295C
:1003E000F229052A220045082000B800220044080E
:1003F0002000B7008631E026803102302100E40081
:100400000030E5008C31DB2480317803031D092A9C
:100410000A2AA32B210045082000BA002100440825
:100420002000B9008E310C26803120003808BC0035
:100430003708BB008331BD23803102302100E60044
:100440000030E700B12902307806031D282A292A46
:100450003C2A220047082000B8002200460820005D
:10046000B7008631E026803103302100E4000030FF
:10047000E5008C31DB2480317803031D402A412ABA
:10048000A32B210047082000BA00210046082000C5
:10049000B9008E310C26803120003808BC003708A6
:1004A000BB008331BD23803103302100E6000030E2
:1004B000E700B12902307806031D5F2A602A732AFB
:1004C000220049082000B800220048082000B70098
:1004D0008631E026803104302100E4000030E50060
:1004E0008C31DB2480317803031D772A782AA32BF3
:1004F000210049082000BA00210048082000B90066
:100500008E310C26803120003808BC003708BB0033
:100510008331BD23803104302100E6000030E70044
:10052000B12902307806031D962A972AAA2A2200AA
:100530004B082000B80022004A082000B70086318E
:10054000E026803105302100E4000030E5008C31E8
:10055000DB2480317803031DAE2AAF2AA32B2100B0
:100560004B082000BA0021004A082000B9008E3153
:100570000C26803120003808BC003708BB008331CE
:10058000BD23803105302100E6000030E700B129AD
:1005900002307806031DCD2ACE2AE12A22004D081A
:1005A0002000B80022004C082000B7008631E02669
:1005B000803106302100E4000030E5008C31DB247E
:1005C00080317803031DE52AE62AA32B21004D087C
:1005D0002000BA0021004C082000B9008E310C2602
:1005E000803120003808BC003708BB008331BD23B0
:1005F000803106302100E6000030E700B1290230EA
:100600007806031D042B052B182B22004F08200011
:10061000B80022004E082000B7008631E026803165
:1006200007302100E4000030E5008C31DB2480310C
:100630007803031D1C2B1D2BA32B21004F0820002A
:10064000BA0021004E082000B9008E310C268031FE
:1006500020003808BC003708BB008331BD2380313F
:1006600007302100E6000030E700B12902307806AB
:10067000031D3B2B3C2B4F2B220051082000B800C0
:10068000220050082000B7008631E0268031083073
:100690002100E4000030E5008C31DB248031780358
:1006A000031D532B542BA32B210051082000BA000B
:1006B000210050082000B9008E310C268031200026
:1006C0003808BC003708BB008331BD2380310830B7
:1006D0002100E6000030E700B12921006A08033E4E
:1006E000860087010108E800E9016908003A03195A
:1006F0007A2BA32B6808083A03197F29183A0319A3
:100700007B29083A0319C82A303A0319232A603A88
:100710000319EC29183A03197729083A0319362BDB
:10072000303A0319912AE03A0319B529103A03190E
:10073000FF2A383A03199028083A03195A2A183A16
:1007400003191129A32BF301F40100308B31C823C5
:10075000803106302100E9001330E800AD30890B0C
:10076000AF2BE80BAF2BE90BAF2B0032F301F401F9
:1007700000308B31C8238031080000302000AB00EE
:100780000030AA000330A900E830A800F430BD0012
:100790000130BE000030BF000030C0003908A000AA
:1007A0003A08A100890D893B8909A200A300003005
:1007B000A7000030A6001230A5005C30A4008E31E6
:1007C0003F26833120002008BD072108BE3D2208B6
:1007D000BF3D2308C03D4008AF003F08AE003E08C3
:1007E000AD003D08AC008431FA2483312000280894
:1007F0003B02C50029083C3BC6003B08A8003C085A
:10080000A900890D893B8909AA00AB000230F300D9
:100810000030F4003C08F6003B08F500873146271D
:10082000833173082000BD007408BE000030BE1B79
:10083000FF30BF00C0004508C1004608C2000030BC
:10084000C21BFF30C300C4000830C135C20DC30D48
:10085000C40D890B252C4108BD074208BE3D430845
:10086000BF3D4408C03D4008AF003F08AE003E0811
:10087000AD003D08AC008431FA2483312000290802
:10088000C8002808C7004808803ABD0081303D02F2
:10089000031D4C2C00304702031C4F2C502C552CB0
:1008A000FF302000C7000030C8002000C81F592CAE
:1008B0005A2C5C2CC701C80148082100AD0020005B
:1008C00047082100AC0008008C31912484318B3121
:1008D000222384318A31BC2284318A31A522843199
:1008E0008A31A92284318731A62784318C312D2485
:1008F000843121006635C03E86008701403F2000DC
:10090000B900413FBA008E310C26843120003808EE
:10091000BC003708BB008331BD238431210064351E
:10092000403E860001308700403F2000B700413F35
:10093000B8008631E02684318B170B178E31AD2637
:1009400084312100EC01ED018E310C268431200030
:1009500038082100EF00200037082100EE006F0862
:10096000803AEB0087306B02031DB82CD0306E024A
:100970000318BB2CBC2CC22C01302100EC0700302A
:10098000ED3DC52C2100EC01ED016D08803AEB0036
:10099000A7306B02031DCE2C11306C02031CD12C2E
:1009A000D22CD52C8D317C25843121006635C03E7A
:1009B00086008701403F2000B900413FBA00210076
:1009C0006F082000BC0021006E082000BB008331AE
:1009D000BD238431023021003506031DF02CF12C9B
:1009E000A42CB4308031872084312100B501A42C9F
:1009F00080314B282000B201AB1FFF2C002D0D2DA4
:100A0000A809A909AA09AB09A80A0319A90A03197F
:100A1000AA0A0319AB0AB201B20AAF1F102D112D99
:100A2000202DAC09AD09AE09AF09AC0A0319AD0A16
:100A30000319AE0A0319AF0A0130B0003008B2063C
:100A40000030B6000030B5000030B4000030B30014
:100A50002B082A042904280403192F2D302D712D69
:100A6000B101B10A3E2D0130A835A90DAA0DAB0D7B
:100A7000890B342D0130B0003008B107AB1F412D78
:100A8000422D332D0130B335B40DB50DB60D890BA4
:100A9000432D2B082F02031D572D2A082E02031D5C
:100AA000572D29082D02031D572D28082C02031C41
:100AB0005A2D5B2D642D2808AC022908AD3B2A086D
:100AC000AE3B2B08AF3B33140130AB36AA0CA90C5C
:100AD000A80C890B652D0130B102031D702D712DFD
:100AE000422D32080319752D762D812DB309B409D5
:100AF000B509B609B30A0319B40A0319B50A0319EB
:100B0000B60A3608AB003508AA003408A900330835
:100B1000A80008002000AC00250886008701403F9F
:100B2000A700413FA800270884002808850012007C
:100B3000253A031D9C2D9D2DE42D25088600870157
:100B40000130810741310318810A2100A201A3016C
:100B5000A601A701FF30A400FF30A5002000250852
:100B600086008701403FA700413FA8002708840076
:100B7000280885001200253A031DBF2DC02DD92D50
:100B80002508860087010130810741310318810A59
:100B90002530F5000030F6002C08A7002708F700E4
:100BA0008E31E926853101302000A5000030A600F5
:100BB000072E25088600870101308107413103187F
:100BC000810AA501A601072E250886008701403F5E
:100BD000A700413FA80027088400280885000008D6
:100BE000A900AA012908F5002A08F6002C08AB0084
:100BF0002B08F7008E31E926853120002508860074
:100C000087010130810741310318810AD32D080083
:100C1000E03020002005A6000F302105A70000309D
:100C20008B1B0130A80027082106031D192E26085A
:100C3000200603191C2E1D2E1E2E732E8B13210829
:100C4000F4002008F3008C311124863123001513A1
:100C5000151595162000A9012008230091002000F9
:100C6000210823009200200029352207A300230831
:100C70008600870101082300930020002935220700
:100C8000A300230886008701403FA400413FA50040
:100C90002508230094001F3020002906031D512E33
:100CA000522E542E23009512553023009600AA3060
:100CB000960095140000000001302000A0070030CD
:100CC000A13D0130A3002308A90720302902031CFD
:100CD0006A2E6B2E2C2E230015112000280C031CCD
:100CE0008B1303188B17080020001508F0007008FC
:100CF000F20095010B1D7D2E7E2E7F2EF2010B1131
:100D0000CA2EB4307202031C862E872EDE2EF430DB
:100D1000720203188C2E8D2EDE2EB401B501B50A99
:100D2000DE2E0130B635B70DB80DB90D890B922EF8
:100D30001D307202031C9D2E9E2EAA2E2A30720296
:100D40000318A32EA42EAA2E36140130F00070082A
:100D5000B407B92E0E307202031CAF2EB02EB72E80
:100D6000153072020318B52EB62EB72EA52EB5017A
:100D7000DE2E20303406031DBE2EBF2EDE2E360999
:100D80003706031DC42EC52EB72E0230F0007008A2
:100D9000B500DE2E21003508F000F1017108003A9F
:100DA0000319D32EB72E7008003A0319812E013A89
:100DB0000319912E033A0319DE2EB72E8B1008006B
:100DC00020003708A0003808A100890D893B890957
:100DD000A200A3000030A7000030A6000030A5004C
:100DE0006030A4008E313F26863120002308AB00FE
:100DF0002208AA002108A9002008A8000030AF009E
:100E00000F30AE004230AD004030AC008431FA24E7
:100E1000863120002908BB002808BA003B08803A28
:100E2000B90081303902031D172F00303A02031C2C
:100E30001A2F1B2F202FFF302000BA000030BB00DC
:100E400020003B08803AB90080303902031D2A2F68
:100E500044303A0203182D2F2E2F332F4430200018
:100E6000BA000030BB008B1320003A088A31B72249
:100E70008631200037083804031D3F2F402F432FB1
:100E8000FA01FA0A442FFA018B1708002000A10189
:100E9000F41F4B2F4C2F532FF309F409F30A0319B6
:100EA000F40AA101A10AF61F562F572F602FF5094A
:100EB000F609F50A0319F60A0130F7007708A106CA
:100EC000A201A301730874040319672F682F972FD9
:100ED000A001A00A742F0130F335F40D890B6C2F9B
:100EE0000130F7007708A007F41F772F782F6B2FBA
:100EF0000130A235A30D890B792F74087602031DEA
:100F0000832F73087502031C862F872F8C2F73087D
:100F1000F5027408F63B22140130F436F30C890B09
:100F20008D2F0130A002031D962F972F782F2108B7
:100F300003199B2F9C2FA12FA209A309A20A031911
:100F4000A30A2308F4002208F3000800FF30200061
:100F50009B001C08FC3902389C001C1521000E1651
:100F60000E303D00A400CF3025009E052C009801D6
:100F70003F3097051916EF30F300730821008E05F6
:100F80002C00991721008C160F303D0095003F3042
:100F900025009E052C009B013F309A051C16DF3072
:100FA000F300730821008C052C009C1721008E167D
:100FB0000C303D00A50025001308F0390C389300D3
:100FC000FF30910030309304DF30F30073082100CC
:100FD0008E0508000A342034633475347234723458
:100FE00065346E3474342034763461346C34753442
:100FF00065342034733465346C346534633474344C
:101000006534643400340A34203472346534733403
:10101000653474342034763461346C34753465341A
:101020002034733465346C3465346334743465341B
:10103000643400340A3420344634723465347134F4
:10104000753465346E3463347934203473346534E4
:101050006C346534633474346534643400340A3475
:1010600020346434653463347234653461347334E9
:1010700065342034733465346C34653463347434CB
:101080006534643400340A34203469346E34633493
:1010900072346534613473346534203473346534A8
:1010A0006C346534633474346534643400340A3425
:1010B0002034633475347234723465346E3474346D
:1010C0002034733465346C3465346334743465347B
:0C10D00064340034D0340734103427346A
:101542000800210097010800C2302A00910008001B
:10155200C2302A00950008008B108B3139238A3162
:101562000800F0007008220099000800F3007308D8
:10157200280096000800803022009800FF30990071
:10158200080074082100DF007308DE0008007408F8
:101592002100E3007308E200080074082100E10062
:1015A2007308E000080074082100DD007308DC0005
:1015B200080074082100DB007308DA0008007408D0
:1015C2002100D5007308D400080074082100D90056
:1015D2007308D8000800F40074088B3118238A318C
:1015E2000800640080010131890BF32A0034FE00F7
:1015F20012001E00FE0BF92A00346A302100990005
:101602009A019801220096010800FF3020009B00F9
:101612009A01911006309C00080020001810FF303B
:101622008A31B2228B3122008E178E100800F3000D
:101632002000111E1D2B1E2B192B730823009A004C
:10164200080021000D130E108E108E1322000D13B0
:101652000E108E108E1708008B1021001513743097
:10166200F3000630F4008A31D4228B310B160800C5
:1016720021005C085D0403193F2B402B452B5D08BC
:101682008A005C080A008B310800200092102100B9
:101692005808590403194E2B4F2B542B59088A0012
:1016A20058080A008B3108000B11790820009500B8
:1016B20021005A085B0403195F2B602B652B5B0822
:1016C2008A005A080A008B31080021001508C03927
:1016D2001538950020009501F9010B118B1202308B
:1016E200F3000030F4008A31DA228B3108003730FF
:1016F2002000B7003708B8003608AE003508AD0044
:101702003830B7003708AF0000308D31A8258B3153
:101712000800043028009600950120009210210054
:1017220092147330F3000E30F4008A31E6228B31CA
:1017320016302800970008000034003401340034C9
:1017420041340034463400344B34003450340034D5
:101752006434003478340034823400348C340034FD
:101762002000111021005708200097002100560880
:10177200200096002100540855040319C12BC22BE6
:10178200C72B55088A0054080A008B310800F6005E
:101792007408031DCD2BCE2BD12B21008E16D62BF8
:1017A200DF30F500750821008E05740925009100CF
:1017B20076082C00980073089B000800FF30200078
:1017C2009700F8309600F8302100D600FF30D7009D
:1017D2002000111021001114200018100E30F30007
:1017E2000B30F4008A31E0228B3108000A340034D5
:1017F2000A34003401340134003400341E3400341D
:1018020032340034463400345A3400346E340034F6
:1018120082340034A0340034DC340034FA3400342E
:1018220000308B1B0130F5008B13730823009100ED
:101832007408920015131516151555309600AA3026
:10184200960095140000000023001511750C031C6E
:101852008B1303188B170800E03084008F3085004B
:101862000008F300F40173082100E6007408E700A1
:10187200E13084008F3085000008F300F401730822
:10188200E4007408E500E23084008F30850000082F
:10189200F3007308FA000800083023009F0090301C
:1018A2009D0024309E0008309B009C010030F30014
:1018B2000030F4008A31C8228C310030F30000304D
:1018C200F4008A31CE228C310030F3000030F40073
:1018D2008A31C2228C312100B3010800A0302000DD
:1018E200B9003908F300F40182308B31C8238C31FE
:1018F20082302000B900DD30890B7D2CB90B7D2CA4
:101902000032F301F40100308B31C8238C312F30C7
:101912002000B5008830B6008B3178238C31080066
:101922008D31D9258C318A31FE228C318A31A22225
:101932008C318A31BC228C318A31A5228C318B3197
:101942008A238C318A31A9228C318B31DF238C316D
:101952008B3106238C318B312D238C318B316623D5
:101962008C318C314D248C31080032302000B9008A
:101972003908F300FF30BA003A08F40000308B3126
:10198200C8238C3182302000B900DD30890BC72C8E
:10199200B90BC72C0032F301F40100308B31C8239C
:1019A2008C3143302000B5008830B6008B3178236B
:1019B2008C310800F301FF302000B9003908F4002F
:1019C20064308B31C8238C3103302000BA008A3056
:1019D200B9005530890BEB2CB90BEB2CBA0BEB2C65
:1019E2000032F301F40100308B31C8238C31EA302C
:1019F2002000B5008730B6008B3178238C31080087
:101A0200F801F80AF301FF302000B9003908F400A8
:101A120000308B31C8238D3106302000BA001330DC
:101A2200B900AD30890B132DB90B132DBA0B132D41
:101A32000032F301F40100308B31C8238D3157306D
:101A42002000B5008830B6008B3178238D31080034
:101A520046302000B9003908F3006430BA003A0871
:101A6200F40096308B31C8238D3103302000BA0048
:101A72008A30B9005530890B3C2DB90B3C2DBA0B7D
:101A82003C2D0032F301F40100308B31C8238D313B
:101A9200EA302000B5008730B6008B3178238D31D3
:101AA200080002302000B9003908F8009630B90069
:101AB2003908F300F40100308B31C8238D31063030
:101AC2002000BA001330B900AD30890B662DB90B76
:101AD200662DBA0B662D0032F301F40100308B3112
:101AE200C8238D311A302000B5008830B6008B3102
:101AF20078238D31080003302000A0002008F80070
:101B0200F301F401FF308B31C8238D310230200004
:101B1200A1004530A000A930890B8D2DA00B8D2D81
:101B2200A10B8D2D0032F301F40100308B31C8235B
:101B32008D3103302000A1008A30A0005530890B7E
:101B4200A02DA00BA02DA10BA02D0032080020007B
:101B5200B2002E08B4002D08B3002100A001A1019B
:101B6200C62D3330B0003008A5002F08B10031086F
:101B7200A600320885318A258D31200025082100F2
:101B8200A007200026082100A13D20003308840080
:101B9200340885001200031DCF2DD02DB22D210057
:101BA20021082000AE00210020082000AD0008001E
:101BB20022008C018D018E01043021008C00303016
:101BC2008D0050308E00403023008E0010308D008A
:101BD2008C0124008D018C018E01210095132500BA
:101BE2008C018D018E01373026008C00F0308D0083
:101BF200FF308E003F3027008C00F0308D00FF3028
:101C02008E008B1502303C0090000D30A400143081
:101C12003D009F0008008130220097007D302100A6
:101C22009D0090309E002200171F182E192E142E90
:101C32000000000000000000000021009D149D181B
:101C4200232E242E202E1D101B082000A800210068
:101C52001C082000A900AA01AB010030AF000F3020
:101C6200AE00FC30AD000030AC008431FA248E317D
:101C720020002908B8002808B70008000030F60044
:101C82000030F5000030F4000030F3002000201C8A
:101C92004B2E4C2E542E2408F3072508F43D26081B
:101CA200F53D2708F63D0130A435A50DA60DA70D7B
:101CB200890B552E0130A336A20CA10CA00C890B66
:101CC2005C2E2308220421042004031D692E6A2E9F
:101CD200472E7608A3007508A2007408A1007308B5
:101CE200A00008002100BF017A080319792E7A2E7C
:101CF2007F2EFF308A31B2228E31AC2E3F0803197B
:101D0200832E842E892EFF308A31B2228E31A62E66
:101D12002800160A031D8E2E8F2EA12E513021006F
:101D22003206031D952E962E9C2E2C088A31B22245
:101D32008E312100B2010130F1007108B207A62EE6
:101D420021002C088A31B2228E31FF302000970008
:101D5200F830960018140800F8012000A201A3012F
:101D6200B4302000A0002008F300E630A1002108D2
:101D7200F40000308B31C8238E3182302000A00065
:101D8200DD30890BC22EA00BC22E0032F301F4010A
:101D920000308B31C8238E3182302000A000DD302C
:101DA200890BD12EA00BD12E003201302000A207C8
:101DB2000030A33D2308803AA00080302002031D9A
:101DC200E42E05302202031CE72EE82EB12E080075
:101DD20077080319ED2EEE2EF32E7708031DF22E4F
:101DE200F32EF82E75088A31EC228E31282F7708CF
:101DF200033E86008701160001040319012F022FFA
:101E0200202F7708033E86008701403F2000A00074
:101E1200413FA100770A86008701403FA200413F6F
:101E2200A3002308803AA4002108803A2402031D5B
:101E32001C2F2008220203181F2F202F282F770A79
:101E4200860087010130810741310318810A0800A9
:101E5200B4302000A0002008F300E630A1002108E1
:101E6200F40000308B31C8238F3103302000A100F1
:101E72008A30A0005530890B3C2FA00B3C2FA10BC0
:101E82003C2F0032F301F40100308B31C8238F3133
:101E920003302000A1008A30A0005530890B4F2F5B
:101EA200A00B4F2FA10B4F2F0032B4302000A00007
:101EB2002008F300E630A1002108F40000308B3145
:101EC200C8238F3103302000A1008A30A000553092
:101ED200890B692FA00B692FA10B692F0032F30127
:101EE200F40100308B31C8238F3103302000A10070
:101EF2008A30A0005530890B7C2FA00B7C2FA10BC0
:101F02007C2F003208002000EE01AE01AF0101304B
:101F1200AA002A08EE0720306E02031C912F922F8E
:101F2200862FEF01FF30210066052000AA00003055
:101F3200210067052000AB0000302A04AE003430D7
:101F42002B04AF000130AA002A08EF07FF3021005E
:101F520064052000AA000030210065052000AB00C6
:101F620000302A04AC0034302B04AD006F352E3E15
:101F7200860087012C08C03F2D08C13F0130AA000E
:101F82002A08EF0700307A04AA003430AB006F351C
:101F92002E3E860087012A08C03F2B08C13F013030
:101FA200AA002A08EF07E030A0000F30A1002E306F
:101FB200AA002A08A200863108268F3108000534BB
:101FC200033400340034003400340034003400346C
:101FD200003400340034003400340034003400345F
:101FE200003400340034003400340034003400344F
:0E1FF200003400340034003400340034003475
:020000040001F9
:04000E00EC21FF3EA4
:00000001FF
