:1000000080314B28080001347E1480318B1E092872
:100010000A2812280B1D0D280E2812288B31882340
:10002000803149280B1E152816281E288B1C1928DC
:100030001A281E288A31E022803149288B1D212868
:1000400022282A280B1C252826282A288A31D4224F
:10005000803149280B1F2D282E2849282100921C69
:10006000322833283B282000921C372838283B2888
:100070008B31792380312100111C3F2840284928E9
:100080002000111C4428452849288B31E423803165
:1000900049287E10090080314D28803103208031AD
:1000A000FA002A3084008C308500BA308600003097
:1000B00087001A308B312B238031D03084008B3075
:1000C0008500403086000130870014308B312B23AF
:1000D0008031F801F901A0308400003085001A3029
:1000E0008B31252380312030840001308500203081
:1000F0008B3125238031A0308400013085002130F0
:100100008B31252380317E1020008431F42C210096
:10011000EA00F301F40100308B31FB2380316D2BB9
:100120007803031D94289528CA280130E60700307B
:10013000E73D6708803AE80080306802031DA22886
:100140000A306602031CA528A628AF280930210022
:10015000E6000030E7008F3185278031B2288C31EE
:10016000E924803121006635C03E86008701403F8A
:100170002000B900413FBA008E31132680312000A3
:100180003808BC003708BB008331BD23803187317C
:100190009527803102307806031DCF28D028FF280C
:1001A00001302100E4070030E53D6508803AE800B1
:1001B00080306802031DDE280A306402031CE12837
:1001C000E228EB2809302100E4000030E5008F31FF
:1001D00085278031EE288C31E92480312100643577
:1001E000403E860001308700403F2000B700413F7D
:1001F000B8008631CF268031873195278031780845
:10020000031D0329042907298F31852780310330F5
:100210007806031D0C290D29A32B8F3185278031EA
:10022000A32B7803031D152916293F29FF30E60764
:10023000FF30E73DE71F1D291E292429E601E701BC
:100240008F318527803127298C31A22480312100EC
:100250006635C03E86008701403F2000B900413F1F
:10026000BA008E311326803120003808BC003708D0
:10027000BB008331BD238031873195278031023027
:100280007806031D442945296829FF302100E40729
:10029000FF30E53DE51F4D294E295429E401E501D4
:1002A0008F318527803157298C31A224803121005C
:1002B0006435403E860001308700403F2000B70093
:1002C000413FB8008631CF26803187319527803174
:1002D0007808031D6C296D2970298F31852780319D
:1002E00003307806031D75297629A32B0D298D313E
:1002F00085258031A32B8D3134258031A32B02300D
:100300007806031D842985299629220041082000AA
:10031000B800220040082000B7008631CF26803187
:100320002100E401E5018D310E2580317803031DA4
:100330009A299B29A32B210041082000BA00210003
:1003400040082000B9008E31132680312000380883
:10035000BC003708BB008331BD2380312100E6019A
:10036000E7018D315C258031A32B02307806031D17
:10037000BA29BB29CE29220043082000B800220058
:1003800042082000B7008631CF268031013021009D
:10039000E4000030E5008D310E2580317803031D27
:1003A000D229D329A32B210043082000BA00210021
:1003B00042082000B9008E31132680312000380811
:1003C000BC003708BB008331BD23803101302100E0
:1003D000E6000030E700B12902307806031DF1295C
:1003E000F229052A220045082000B800220044080E
:1003F0002000B7008631CF26803102302100E40092
:100400000030E5008D310E2580317803031D092A67
:100410000A2AA32B210045082000BA002100440825
:100420002000B9008E311326803120003808BC002E
:100430003708BB008331BD23803102302100E60044
:100440000030E700B12902307806031D282A292A46
:100450003C2A220047082000B8002200460820005D
:10046000B7008631CF26803103302100E400003010
:10047000E5008D310E2580317803031D402A412A85
:10048000A32B210047082000BA00210046082000C5
:10049000B9008E311326803120003808BC0037089F
:1004A000BB008331BD23803103302100E6000030E2
:1004B000E700B12902307806031D5F2A602A732AFB
:1004C000220049082000B800220048082000B70098
:1004D0008631CF26803104302100E4000030E50071
:1004E0008D310E2580317803031D772A782AA32BBE
:1004F000210049082000BA00210048082000B90066
:100500008E311326803120003808BC003708BB002C
:100510008331BD23803104302100E6000030E70044
:10052000B12902307806031D962A972AAA2A2200AA
:100530004B082000B80022004A082000B70086318E
:10054000CF26803105302100E4000030E5008D31F8
:100550000E2580317803031DAE2AAF2AA32B21007C
:100560004B082000BA0021004A082000B9008E3153
:100570001326803120003808BC003708BB008331C7
:10058000BD23803105302100E6000030E700B129AD
:1005900002307806031DCD2ACE2AE12A22004D081A
:1005A0002000B80022004C082000B7008631CF267A
:1005B000803106302100E4000030E5008D310E2549
:1005C00080317803031DE52AE62AA32B21004D087C
:1005D0002000BA0021004C082000B9008E311326FB
:1005E000803120003808BC003708BB008331BD23B0
:1005F000803106302100E6000030E700B1290230EA
:100600007806031D042B052B182B22004F08200011
:10061000B80022004E082000B7008631CF26803176
:1006200007302100E4000030E5008D310E258031D7
:100630007803031D1C2B1D2BA32B21004F0820002A
:10064000BA0021004E082000B9008E3113268031F7
:1006500020003808BC003708BB008331BD2380313F
:1006600007302100E6000030E700B12902307806AB
:10067000031D3B2B3C2B4F2B220051082000B800C0
:10068000220050082000B7008631CF268031083084
:100690002100E4000030E5008D310E258031780323
:1006A000031D532B542BA32B210051082000BA000B
:1006B000210050082000B9008E311326803120001F
:1006C0003808BC003708BB008331BD2380310830B7
:1006D0002100E6000030E700B12921006A08033E4E
:1006E000860087010108E800E9016908003A03195A
:1006F0007A2BA32B6808083A03197F29183A0319A3
:100700007B29083A0319C82A303A0319232A603A88
:100710000319EC29183A03197729083A0319362BDB
:10072000303A0319912AE03A0319B529103A03190E
:10073000FF2A383A03199028083A03195A2A183A16
:1007400003191129A32BF301F40100308B31FB2392
:10075000803106302100E9001330E800AD30890B0C
:10076000AF2BE80BAF2BE90BAF2B0032F301F401F9
:1007700000308B31FB238031080000302000AB00BB
:100780000030AA000330A900E830A800F430BD0012
:100790000130BE000030BF000030C0003908A000AA
:1007A0003A08A100890D893B8909A200A300003005
:1007B000A7000030A6001230A5005C30A4008E31E6
:1007C0004626833120002008BD072108BE3D2208AF
:1007D000BF3D2308C03D4008AF003F08AE003E08C3
:1007E000AD003D08AC00843164248331200028082A
:1007F0003B02C50029083C3BC6003B08A8003C085A
:10080000A900890D893B8909AA00AB000230F300D9
:100810000030F4003C08F6003B08F500873135272E
:10082000833173082000BD007408BE000030BE1B79
:10083000FF30BF00C0004508C1004608C2000030BC
:10084000C21BFF30C300C4000830C135C20DC30D48
:10085000C40D890B252C4108BD074208BE3D430845
:10086000BF3D4408C03D4008AF003F08AE003E0811
:10087000AD003D08AC008431642483312000290898
:10088000C8002808C7004808803ABD0081303D02F2
:10089000031D4C2C00304702031C4F2C502C552CB0
:1008A000FF302000C7000030C8002000C81F592CAE
:1008B0005A2C5C2CC701C80148082100AD0020005B
:1008C00047082100AC0008002000B201AB1F692CD2
:1008D0006A2C772CA809A909AA09AB09A80A031947
:1008E000A90A0319AA0A0319AB0AB201B20AAF1F77
:1008F0007A2C7B2C8A2CAC09AD09AE09AF09AC0A65
:100900000319AD0A0319AE0A0319AF0A0130B0008A
:100910003008B2060030B6000030B5000030B40038
:100920000030B3002B082A04290428040319992C49
:100930009A2CDB2CB101B10AA82C0130A835A90DE5
:10094000AA0DAB0D890B9E2C0130B0003008B10709
:10095000AB1FAB2CAC2C9D2C0130B335B40DB50DB9
:10096000B60D890BAD2C2B082F02031DC12C2A08B4
:100970002E02031DC12C29082D02031DC12C28089D
:100980002C02031CC42CC52CCE2C2808AC02290830
:10099000AD3B2A08AE3B2B08AF3B33140130AB36DE
:1009A000AA0CA90CA80C890BCF2C0130B102031D95
:1009B000DA2CDB2CAC2C32080319DF2CE02CEB2CCE
:1009C000B309B409B509B609B30A0319B40A03197E
:1009D000B50A0319B60A3608AB003508AA00340870
:1009E000A9003308A80008008C31C42484318B315D
:1009F000552384318A31EF2284318A31D8228431DF
:100A00008A31DC2284318E31F62684318C316024A7
:100A1000843121006635C03E86008701403F2000BA
:100A2000B900413FBA008E311326843120003808C6
:100A3000BC003708BB008331BD23843121006435FD
:100A4000403E860001308700403F2000B700413F14
:100A5000B8008631CF2684318B170B178E317A265A
:100A600084312100EC01ED018E3113268431200008
:100A700038082100EF00200037082100EE006F0841
:100A8000803AEB0087306B02031D482DD0306E0298
:100A900003184B2D4C2D522D01302100EC07003056
:100AA000ED3D552D2100EC01ED016635C03E86007F
:100AB0008701403F2000B900413FBA0021006F0884
:100AC0002000BC0021006E082000BB008331BD2344
:100AD0008431023021003506031D6F2D702D342D19
:100AE000B4308031872084312100B501342D80312C
:100AF0004B282000AC00250886008701403FA70056
:100B0000413FA80027088400280885001200253AE4
:100B1000031D8B2D8C2DD32D2508860087010130D8
:100B2000810741310318810A2100A201A301A60116
:100B3000A701FF30A400FF30A50020002508860093
:100B40008701403FA700413FA800270884002808EC
:100B500085001200253A031DAE2DAF2DC82D2508A6
:100B6000860087010130810741310318810A253051
:100B7000F5000030F6002C08A7002708F7008E319A
:100B8000B626853101302000A5000030A600F62DE4
:100B90002508860087010130810741310318810A49
:100BA000A501A601F62D250886008701403FA70074
:100BB000413FA80027088400280885000008A900F4
:100BC000AA012908F5002A08F6002C08AB002B081A
:100BD000F7008E31B6268531200025088600870172
:100BE0000130810741310318810AC22D0800E0302D
:100BF00020002005A6000F302105A70000308B1B28
:100C00000130A80027082106031D082E260820060B
:100C100003190B2E0C2E0D2E622E8B132108F400BF
:100C20002008F3008C314424853123001513151559
:100C300095162000A901200823009100200021081A
:100C400023009200200029352207A30023088600F4
:100C50008701010823009300200029352207A30003
:100C6000230886008701403FA400413FA5002508D6
:100C7000230094001F3020002906031D402E412E22
:100C8000432E23009512553023009600AA3096007B
:100C900095140000000001302000A0070030A13DA5
:100CA0000130A3002308A90720302902031C592E74
:100CB0005A2E1B2E230015112000280C031C8B1309
:100CC00003188B17080020001508F0007008F200C8
:100CD00095010B1D6C2E6D2E6E2EF2010B11B92E8F
:100CE000B4307202031C752E762ECD2EF4307202B3
:100CF00003187B2E7C2ECD2EB401B501B50ACD2E66
:100D00000130B635B70DB80DB90D890B812E1D30E8
:100D10007202031C8C2E8D2E992E2A30720203181B
:100D2000922E932E992E36140130F0007008B407DD
:100D3000A82E0E307202031C9E2E9F2EA62E15305A
:100D400072020318A42EA52EA62E942EB501CD2E28
:100D500020303406031DAD2EAE2ECD2E36093706BB
:100D6000031DB32EB42EA62E0230F0007008B5007D
:100D7000CD2E21003508F000F1017108003A031969
:100D8000C22EA62E7008003A0319702E013A0319DC
:100D9000802E033A0319CD2EA62E8B1008002000BA
:100DA0003708A0003808A100890D893B8909A200F5
:100DB000A3000030A7000030A6000030A50060307E
:100DC000A4008E314626863120002308AB0022087D
:100DD000AA002108A9002008A8000030AF000F30A9
:100DE000AE004230AD004030AC0084316424863126
:100DF00020002908BB002808BA003B08803AB90047
:100E000081303902031D062F00303A02031C092FDE
:100E10000A2F0F2FFF302000BA000030BB00200047
:100E20003B08803AB90080303902031D192F443045
:100E30003A0203181C2F1D2F222F44302000BA0025
:100E40000030BB008B1320003A088A31EA22863139
:100E5000200037083804031D2E2F2F2F322FFA01C0
:100E6000FA0A332FFA018B1708002000A101F41FA2
:100E70003A2F3B2F422FF309F409F30A0319F40A1E
:100E8000A101A10AF61F452F462F4F2FF509F6099C
:100E9000F50A0319F60A0130F7007708A106A20146
:100EA000A301730874040319562F572F862FA0012E
:100EB000A00A632F0130F335F40D890B5B2F01304D
:100EC000F7007708A007F41F662F672F5A2F01300D
:100ED000A235A30D890B682F74087602031D722FAB
:100EE00073087502031C752F762F7B2F7308F5028C
:100EF0007408F63B22140130F436F30C890B7C2F76
:100F00000130A002031D852F862F672F21080319AA
:100F10008A2F8B2F902FA209A309A20A0319A30AD3
:100F20002308F4002208F30008002000EE01AE01BF
:100F3000AF010130AA002A08EE0720306E02031C20
:100F4000A22FA32F972FEF01FF302100660520006D
:100F5000AA000030210067052000AB0000302A0401
:100F6000AE0034302B04AF000130AA002A08EF078E
:100F7000FF30210064052000AA0000302100650533
:100F80002000AB0000302A04AC0034302B04AD004C
:100F90006F352E3E860087012C08C03F2D08C13FCB
:100FA0000130AA002A08EF0700307A04AA00343082
:100FB000AB006F352E3E860087012A08C03F2B0804
:100FC000C13F0130AA002A08EF07E030A0000F302F
:100FD000A1002E30AA002A08A2008531F72587310A
:100FE00008000A3420346334753472347234653442
:100FF0006E3474342034763461346C347534653432
:101000002034733465346C3465346334743465343B
:10101000643400340A3420347234653473346534F3
:1010200074342034763461346C347534653420344F
:10103000733465346C3465346334743465346434C7
:1010400000340A34203446347234653471347534D3
:1010500065346E34633479342034733465346C34DD
:101060006534633474346534643400340A342034B1
:101070006434653463347234653461347334653494
:101080002034733465346C346534633474346534BB
:10109000643400340A34203469346E346334723476
:1010A00065346134733465342034733465346C349E
:1010B0006534633474346534643400340A34203461
:1010C000633475347234723465346E34743420345D
:1010D000733465346C346534633474346534643427
:0A10E0000034D034073410342734F4
:1015A8000800210097010800C2302A0091000800B5
:1015B800C2302A00950008008B108B316C238A31C9
:1015C8000800F0007008220099000800F300730872
:1015D800280096000800803022009800FF3099000B
:1015E800080074082100DF007308DE000800740892
:1015F8002100E3007308E200080074082100E100FC
:101608007308E000080074082100DD007308DC009E
:10161800080074082100DB007308DA000800740869
:101628002100D5007308D400080074082100D900EF
:101638007308D8000800F40074088B314B238B31F1
:101648000800640080010131890B262B0034FE005C
:1016580012001E00FE0B2C2B00346A30210099006A
:101668009A019801220096010800FF3020009B0093
:101678009A01911006309C00080020001810FF30D5
:101688008A31E5228B3122008E138E100800F30078
:101698002000111E502B512B4C2B730823009A004D
:1016A800080021000D130E108E108E1322000D134A
:1016B8000E108E148E1708008B102100151363303E
:1016C800F3000630F4008B3107238B310B1608002A
:1016D80021005C085D040319722B732B782B5D08BD
:1016E8008A005C080A008B31080020009210210053
:1016F800580859040319812B822B872B59088A0013
:1017080058080A008B3108000B1179082000950051
:1017180021005A085B040319922B932B982B5B0822
:101728008A005A080A008B31080021001508C039C0
:101738001538950020009501F9010B118B12023024
:10174800F3000030F4008B310D238B310800373063
:101758002000B7003708B8003608AE003508AD00DD
:101768003830B7003708AF0000308D31AF258B31E6
:1017780008000430280096009501200092102100EE
:1017880092143A30F3000F30F4008B3119238B3167
:101798001630280097000800003400340134003463
:1017A80041340034463400344B340034503400346F
:1017B8006434003478340034823400348C34003497
:1017C800200011102100570820009700210056081A
:1017D800200096002100540855040319F42BF52B1A
:1017E800FA2B55088A0054080A008B310800F600C5
:1017F8007408031D002C012C042C21008E16092CC2
:10180800DF30F500750821008E0574092500910068
:1018180076082C00980073089B000800FF30200011
:101828009700F8309600F8302100D600FF30D70036
:101838002000111021001114200018104130F3006D
:101848000B30F4008B3113238C3108000A34003438
:101858000A34003401340134003400341E340034B6
:1018680032340034463400345A3400346E34003490
:1018780082340034A0340034DC340034FA340034C8
:1018880000308B1B0130F5008B1373082300910087
:101898007408920015131516151555309600AA30C0
:1018A800960095140000000023001511750C031C08
:1018B8008B1303188B170800E03084008F308500E5
:1018C8000008F300F40173082100E6007408E7003B
:1018D800E13084008F3085000008F300F4017308BC
:1018E800E4007408E500E23084008F3085000008C9
:1018F800F3007308FA000800083023009F009030B6
:101908009D0024309E0008309B009C010030F300AD
:101918000030F4008A31FB228C310030F3000030B3
:10192800F4008B3101238C310030F3000030F400D7
:101938008A31F5228C312100B3010800A030200043
:10194800B9003908F300F40182308B31FB238C3164
:1019580082302000B900DD30890BB02CB90BB02CD7
:101968000032F301F40100308B31FB238C31363027
:101978002000B5008830B6008B31AB238C310800CD
:101988008D31E0258C318B3131238C318A31D52250
:101998008C318A31EF228C318A31D8228C318B31CB
:1019A800BD238C318A31DC228C318C3112248C316C
:1019B8008B3139238C318B3160238C318B319923D6
:1019C8008C318C3180248C31080032302000B900F1
:1019D8003908F300FF30BA003A08F40000308B31C0
:1019E800FB238C3182302000B900DD30890BFA2CC2
:1019F800B90BFA2C0032F301F40100308B31FB23D0
:101A08008C314A302000B5008830B6008B31AB23CA
:101A18008C310800F301FF302000B9003908F400C8
:101A280064308B31FB238D3103302000BA008A30BB
:101A3800B9005530890B1E2DB90B1E2DBA0B1E2D62
:101A48000032F301F40100308B31FB238D31F1308A
:101A58002000B5008730B6008B31AB238D310800EC
:101A6800F801F80AF301FF302000B9003908F40042
:101A780000308B31FB238D3106302000BA00133043
:101A8800B900AD30890B462DB90B462DBA0B462D42
:101A98000032F301F40100308B31FB238D315E30CD
:101AA8002000B5008830B6008B31AB238D3108009B
:101AB80046302000B9003908F3006430BA003A080B
:101AC800F40096308B31FB238D3103302000BA00AF
:101AD8008A30B9005530890B6F2DB90B6F2DBA0BB1
:101AE8006F2D0032F301F40100308B31FB238D316F
:101AF800F1302000B5008730B6008B31AB238D3133
:101B0800080002302000B9003908F8009630B90002
:101B18003908F300F40100308B31FB238D31063096
:101B28002000BA001330B900AD30890B992DB90BDC
:101B3800992DBA0B992D0032F301F40100308B3145
:101B4800FB238D3121302000B5008830B6008B3161
:101B5800AB238D3108002000B2002E08B4002D08F8
:101B6800B3002100A001A101CD2D3330B000300811
:101B7800A5002F08B1003108A60032088531792563
:101B88008D31200025082100A0072000260821000B
:101B9800A13D200033088400340885001200031D8D
:101BA800D62DD72DB92D210021082000AE00210007
:101BB80020082000AD00080022008C018D018E0154
:101BC800043021008C0030308D0050308E004030C1
:101BD80023008E0010308D008C0124008D018C01B3
:101BE8008E012100951325008C018D018E0137305F
:101BF80026008C00F0308D00FF308E003F3027002B
:101C08008C00F0308D00FF308E008B1502303C00C8
:101C180090000D30A40014303D009F000800813072
:101C2800220097007D3021009D0090309E00220008
:101C3800171F1F2E202E1B2E000000000000000082
:101C4800000021009D149D182A2E2B2E272E1D10D2
:101C58001B082000A80021001C082000A900AA01D8
:101C6800AB010030AF000F30AE00FC30AD000030EB
:101C7800AC00843164248E3120002908B80028087B
:101C8800B70008000030F6000030F5000030F4001E
:101C98000030F3002000201C522E532E5B2E240807
:101CA800F3072508F43D2608F53D2708F63D0130E1
:101CB800A435A50DA60DA70D890B5C2E0130A33602
:101CC800A20CA10CA00C890B632E2308220421046A
:101CD8002004031D702E712E4E2E7608A300750861
:101CE800A2007408A1007308A0000800F8012000F1
:101CF800A201A301B4302000A0002008F300E630C0
:101D0800A1002108F40000308B31FB238E31823092
:101D18002000A000DD30890B8F2EA00B8F2E003203
:101D2800F301F40100308B31FB238E318230200027
:101D3800A000DD30890B9E2EA00B9E2E00320130B4
:101D48002000A2070030A33D2308803AA00080307D
:101D58002002031DB12E05302202031CB42EB52E1D
:101D68007E2E080077080319BA2EBB2EC02E7708DE
:101D7800031DBF2EC02EC52E75088B311F238E3133
:101D8800F52E7708033E8600870116000104031923
:101D9800CE2ECF2EED2E7708033E86008701403FDA
:101DA8002000A000413FA100770A86008701403F3C
:101DB800A200413FA3002308803AA4002108803AEA
:101DC8002402031DE92E200822020318EC2EED2E12
:101DD800F52E770A86008701013081074131031803
:101DE800810A0800FF3020009B001C08FC390238DB
:101DF8009C001C1521000E160E303D00A400CF30AB
:101E080025009E052C0098013F3097051916EF30E4
:101E1800F300730821008E052C00991721008C16F9
:101E28000F303D0095003F3025009E052C009B019A
:101E38003F309A051C16DF30F300730821008C052B
:101E48002C009C1721008E160C303D00A5002500A3
:101E58001308F0390C389300FF30910030309304A8
:101E6800DF30F300730821008E0508002100BF0150
:101E78007A080319402F412F462FFF308A31E52277
:101E88008F31842F3F0803194A2F4B2F502FFF30D3
:101E98008A31E5228F31842F2800160A031D552F19
:101EA800562F682F513021003206031D5C2F5D2FFD
:101EB800632F2C088A31E5228F312100B2010130CD
:101EC800F1007108B2077F2F21002C088A31E52222
:101ED8008F31210031080319722F732F792F2200B7
:101EE8008E138E142100B1017F2F22008E148E13C1
:101EF8002100B101B10AFF3020009700EE309600B2
:101F08000800B4302000A0002008F300E630A1004B
:101F18002108F40000308B31FB238F31033020007F
:101F2800A1008A30A0005530890B982FA00B982F5C
:101F3800A10B982F0032F301F40100308B31FB2301
:101F48008F3103302000A1008A30A0005530890B62
:101F5800AB2FA00BAB2FA10BAB2F0032B43020005E
:101F6800A0002008F300E630A1002108F4000030AA
:101F78008B31FB238F3103302000A1008A30A00071
:101F88005530890BC52FA00BC52FA10BC52F0032CB
:101F9800F301F40100308B31FB238F310330200033
:101FA800A1008A30A0005530890BD82FA00BD82F5C
:101FB800A10BD82F00320800053403340034003454
:101FC8000034003400340034003400340034003469
:101FD8000034003400340034003400340034003459
:101FE8000034003400340034003400340034003449
:081FF800003400340034003411
:020000040001F9
:04000E00EC21FF3EA4
:00000001FF
