:1000000080314B28080001347E1480318B1E092872
:100010000A2812280B1D0D280E2812288B314F2379
:10002000803149280B1E152816281E288B1C1928DC
:100030001A281E288A31BC22803149288B1D21288C
:1000400022282A280B1C252826282A288A31AF2274
:10005000803149280B1F2D282E2849282100921C69
:10006000322833283B282000921C372838283B2888
:100070008B31402380312100111C3F284028492822
:100080002000111C4428452849288B31AB2380319E
:1000900049287E10090080314D28803103208031AD
:1000A000FA00F13084008B308500BA3086000030D1
:1000B000870019308B3107238031973084008B30D3
:1000C0008500403086000130870014308B310723D3
:1000D0008031F801F901A0308400003085001A3029
:1000E0008B310123803120308400013085002030A5
:1000F0008B3101238031A030840001308500213014
:100100008B31012380317E1020008431622C21004C
:10011000E900F301F40100308B31C22380316D2BF3
:100120007803031D94289528CA280130E50700307C
:10013000E63D6608803AE70080306702031DA2288A
:100140000A306502031CA528A628AF280930210023
:10015000E5000030E6008F3185278031B2288C31F0
:10016000CC24803121006535BF3E86008701403FA9
:100170002000B900413FBA008E3122268031200094
:100180003808BC003708BB008331BD23803187317C
:10019000A427803102307806031DCF28D028FF28FD
:1001A00001302100E3070030E43D6408803AE700B5
:1001B00080306702031DDE280A306302031CE12839
:1001C000E228EB2809302100E3000030E4008F3101
:1001D00085278031EE288C31CC2480312100633595
:1001E000403E860001308700403F2000B700413F7D
:1001F000B8008631DE2680318731A4278031780827
:10020000031D0329042907298F31852780310330F5
:100210007806031D0C290D29A32B8F3185278031EA
:10022000A32B7803031D152916293F29FF30E50765
:10023000FF30E63DE61F1D291E292429E501E601C0
:100240008F318527803127298C3185248031210009
:100250006535BF3E86008701403F2000B900413F21
:10026000BA008E312226803120003808BC003708C1
:10027000BB008331BD2380318731A4278031023018
:100280007806031D442945296829FF302100E3072A
:10029000FF30E43DE41F4D294E295429E301E401D8
:1002A0008F318527803157298C3185248031210079
:1002B0006335403E860001308700403F2000B70094
:1002C000413FB8008631DE2680318731A427803156
:1002D0007808031D6C296D2970298F31852780319D
:1002E00003307806031D75297629A32B0D298D313E
:1002F00068258031A32B8D3117258031A32B023047
:100300007806031D842985299629220041082000AA
:10031000B800220040082000B7008631DE26803178
:100320002100E301E4018C31F12480317803031DC5
:100330009A299B29A32B210040082000BA00210004
:100340003F082000B9008E31222680312000380875
:10035000BC003708BB008331BD2380312100E5019B
:10036000E6018D313F258031A32B02307806031D35
:10037000BA29BB29CE29220043082000B800220058
:1003800042082000B7008631DE268031013021008E
:10039000E3000030E4008C31F12480317803031D48
:1003A000D229D329A32B210042082000BA00210022
:1003B00041082000B9008E31222680312000380803
:1003C000BC003708BB008331BD23803101302100E0
:1003D000E5000030E600B12902307806031DF1295E
:1003E000F229052A220045082000B800220044080E
:1003F0002000B7008631DE26803102302100E30084
:100400000030E4008C31F12480317803031D092A87
:100410000A2AA32B210044082000BA002100430827
:100420002000B9008E312226803120003808BC001F
:100430003708BB008331BD23803102302100E50045
:100440000030E600B12902307806031D282A292A47
:100450003C2A220047082000B8002200460820005D
:10046000B7008631DE26803103302100E300003002
:10047000E4008C31F12480317803031D402A412AA5
:10048000A32B210046082000BA00210045082000C7
:10049000B9008E312226803120003808BC00370890
:1004A000BB008331BD23803103302100E5000030E3
:1004B000E600B12902307806031D5F2A602A732AFC
:1004C000220049082000B800220048082000B70098
:1004D0008631DE26803104302100E3000030E40064
:1004E0008C31F12480317803031D772A782AA32BDD
:1004F000210048082000BA00210047082000B90068
:100500008E312226803120003808BC003708BB001D
:100510008331BD23803104302100E5000030E60046
:10052000B12902307806031D962A972AAA2A2200AA
:100530004B082000B80022004A082000B70086318E
:10054000DE26803105302100E3000030E4008C31EC
:10055000F12480317803031DAE2AAF2AA32B21009A
:100560004A082000BA00210049082000B9008E3155
:100570002226803120003808BC003708BB008331B8
:10058000BD23803105302100E5000030E600B129AF
:1005900002307806031DCD2ACE2AE12A22004D081A
:1005A0002000B80022004C082000B7008631DE266B
:1005B000803106302100E3000030E4008C31F1246A
:1005C00080317803031DE52AE62AA32B21004C087D
:1005D0002000BA0021004B082000B9008E312226ED
:1005E000803120003808BC003708BB008331BD23B0
:1005F000803106302100E5000030E600B1290230EC
:100600007806031D042B052B182B22004F08200011
:10061000B80022004E082000B7008631DE26803167
:1006200007302100E3000030E4008C31F1248031F8
:100630007803031D1C2B1D2BA32B21004E0820002B
:10064000BA0021004D082000B9008E3122268031E9
:1006500020003808BC003708BB008331BD2380313F
:1006600007302100E5000030E600B12902307806AD
:10067000031D3B2B3C2B4F2B220051082000B800C0
:10068000220050082000B7008631DE268031083075
:100690002100E3000030E4008C31F1248031780344
:1006A000031D532B542BA32B210050082000BA000C
:1006B00021004F082000B9008E3122268031200011
:1006C0003808BC003708BB008331BD2380310830B7
:1006D0002100E5000030E600B12921006908033E51
:1006E000860087010108E700E8016808003A03195D
:1006F0007A2BA32B6708083A03197F29183A0319A4
:100700007B29083A0319C82A303A0319232A603A88
:100710000319EC29183A03197729083A0319362BDB
:10072000303A0319912AE03A0319B529103A03190E
:10073000FF2A383A03199028083A03195A2A183A16
:1007400003191129A32BF301F40100308B31C223CB
:10075000803106302100E8001330E700AD30890B0E
:10076000AF2BE70BAF2BE80BAF2B0032F301F401FB
:1007700000308B31C2238031080000302000AB00F4
:100780000030AA000330A900E830A800F430BD0012
:100790000130BE000030BF000030C0003908A000AA
:1007A0003A08A100890D893B8909A200A300003005
:1007B000A7000030A6001230A5005C30A4008E31E6
:1007C0005526833120002008BD072108BE3D2208A0
:1007D000BF3D2308C03D4008AF003F08AE003E08C3
:1007E000AD003D08AC008431F82483312000280896
:1007F0003B02C50029083C3BC6003B08A8003C085A
:10080000A900890D893B8909AA00AB000230F300D9
:100810000030F4003C08F6003B08F500873144271F
:10082000833173082000BD007408BE000030BE1B79
:10083000FF30BF00C0004508C1004608C2000030BC
:10084000C21BFF30C300C4000830C135C20DC30D48
:10085000C40D890B252C4108BD074208BE3D430845
:10086000BF3D4408C03D4008AF003F08AE003E0811
:10087000AD003D08AC008431F82483312000290804
:10088000C8002808C7004808803ABD0081303D02F2
:10089000031D4C2C00304702031C4F2C502C552CB0
:1008A000FF302000C7000030C8002000C81F592CAE
:1008B0005A2C5C2CC701C8014708BD003D08210027
:1008C000B20008008C31A7248431803102208431A9
:1008D0008A31CB2284318A31B42284318A31B822E0
:1008E00084318F31412784318C314324843121007C
:1008F0006535BF3E86008701403F2000B900413F7B
:10090000BA008E312226843120003808BC00370816
:10091000BB008331BD23843121006335403E860016
:1009200001308700403F2000B700413FB8008631CA
:10093000DE2684318B170B178E31C52684312100BA
:10094000EB01EC018E312226843120003808210091
:10095000EE00200037082100ED006E08803AEA0022
:1009600087306A02031DB62CD0306D020318B92CF3
:10097000BA2CC02C01302100EB070030EC3DC32C19
:100980002100EB01EC016C08803AEA00A7306A0212
:10099000031DCC2C11306B02031CCF2CD02CD32C7C
:1009A0008D319225843121006535BF3E8600870157
:1009B000403F2000B900413FBA0021006E082000EE
:1009C000BC0021006D082000BB008331BD238431B1
:1009D000023021003506031DEE2CEF2CA22CB43082
:1009E0008031872084312100B501A22C80314B2831
:1009F0002000B201AB1FFD2CFE2C0B2DA809A9096C
:100A0000AA09AB09A80A0319A90A0319AA0A031912
:100A1000AB0AB201B20AAF1F0E2D0F2D1E2DAC096D
:100A2000AD09AE09AF09AC0A0319AD0A0319AE0A44
:100A30000319AF0A0130B0003008B2060030B6002A
:100A40000030B5000030B4000030B3002B082A0499
:100A50002904280403192D2D2E2D6F2DB101B10A63
:100A60003C2D0130A835A90DAA0DAB0D890B322DF7
:100A70000130B0003008B107AB1F3F2D402D312DA4
:100A80000130B335B40DB50DB60D890B412D2B08D2
:100A90002F02031D552D2A082E02031D552D29084E
:100AA0002D02031D552D28082C02031C582D592DED
:100AB000622D2808AC022908AD3B2A08AE3B2B0862
:100AC000AF3B33140130AB36AA0CA90CA80C890B30
:100AD000632D0130B102031D6E2D6F2D402D3208A4
:100AE0000319732D742D7F2DB309B409B509B60907
:100AF000B30A0319B40A0319B50A0319B60A36086A
:100B0000AB003508AA003408A9003308A800080083
:100B10002000AC00250886008701403FA700413F28
:100B2000A80027088400280885001200253A031D24
:100B30009A2D9B2DE22D2508860087010130810723
:100B400041310318810A2100A201A301A601A701D6
:100B5000FF30A400FF30A500200025088600870193
:100B6000403FA700413FA8002708840028088500CF
:100B70001200253A031DBD2DBE2DD72D2508860058
:100B800087010130810741310318810A2530F500C2
:100B90000030F6002C08A7002708F7008F31012746
:100BA000853101302000A5000030A600052E250863
:100BB000860087010130810741310318810AA501B0
:100BC000A601052E250886008701403FA700413F6A
:100BD000A80027088400280885000008A900AA01A9
:100BE0002908F5002A08F6002C08AB002B08F700AE
:100BF0008F310127853120002508860087010130CB
:100C0000810741310318810AD12D0800E03020000E
:100C10002005A6000F302105A70000308B1B0130F6
:100C2000A80027082106031D172E260820060319F1
:100C30001A2E1B2E1C2E712E8B132108F400200857
:100C4000F3008C310A2486312300151315159516EF
:100C50002000A90120082300910020002108230082
:100C60009200200029352207A3002308860087016F
:100C7000010823009300200029352207A300230840
:100C800086008701403FA400413FA50025082300BE
:100C900094001F3020002906031D4F2E502E522E87
:100CA00023009512553023009600AA309600951423
:100CB0000000000001302000A0070030A13D0130FD
:100CC000A3002308A90720302902031C682E692EDF
:100CD0002A2E230015112000280C031C8B13031847
:100CE0008B17080020001508F0007008F20095012D
:100CF0000B1D7B2E7C2E7D2EF2010B11C82EB430E5
:100D00007202031C842E852EDC2EF430720203182E
:100D10008A2E8B2EDC2EB401B501B50ADC2E0130F3
:100D2000B635B70DB80DB90D890B902E1D30720276
:100D3000031C9B2E9C2EA82E2A3072020318A12E73
:100D4000A22EA82E36140130F0007008B407B72E7A
:100D50000E307202031CAD2EAE2EB52E153072026F
:100D60000318B32EB42EB52EA32EB501DC2E2030E1
:100D70003406031DBC2EBD2EDC2E36093706031D9E
:100D8000C22EC32EB52E0230F0007008B500DC2E46
:100D900021003508F000F1017108003A0319D12E45
:100DA000B52E7008003A03197F2E013A03198F2ED1
:100DB000033A0319DC2EB52E8B10080020003708EB
:100DC000A0003808A100890D893B8909A200A30071
:100DD0000030A7000030A6000030A5006030A4005D
:100DE0008E315526863120002308AB002208AA0048
:100DF0002108A9002008A8000030AF000F30AE0085
:100E00004230AD004030AC008431F82486312000FF
:100E10002908BB002808BA003B08803AB900813095
:100E20003902031D152F00303A02031C182F192F09
:100E30001E2FFF302000BA000030BB0020003B080E
:100E4000803AB90080303902031D282F44303A021D
:100E500003182B2F2C2F312F44302000BA000030E4
:100E6000BB008B1320003A088A31C622863120004D
:100E700037083804031D3D2F3E2F412FFA01FA0A8F
:100E8000422FFA018B1708002000A101F41F492FFF
:100E90004A2F512FF309F409F30A0319F40AA101A7
:100EA000A10AF61F542F552F5E2FF509F609F50AF2
:100EB0000319F60A0130F7007708A106A201A30181
:100EC000730874040319652F662F952FA001A00ADB
:100ED000722F0130F335F40D890B6A2F0130F700C2
:100EE0007708A007F41F752F762F692F0130A235E0
:100EF000A30D890B772F74087602031D812F7308C9
:100F00007502031C842F852F8A2F7308F50274083D
:100F1000F63B22140130F436F30C890B8B2F013091
:100F2000A002031D942F952F762F21080319992FC6
:100F30009A2F9F2FA209A309A20A0319A30A230823
:100F4000F4002208F30008002000EE01AE01AF011A
:100F50000130AA002A08EE0720306E02031CB12FD0
:100F6000B22FA62FEF01FF30210065052000AA0057
:100F70000030210066052000AB0000302A04AE00DE
:100F800034302B04AF000130AA002A08EF07FF30ED
:100F9000210063052000AA00003021006405200024
:100FA000AB0000302A04AC0034302B04AD006F35A8
:100FB0002E3E860087012C08C03F2D08C13F01301E
:100FC000AA002A08EF0700307A04AA003430AB00E8
:100FD0006F352E3E860087012A08C03F2B08C13F8F
:100FE0000130AA002A08EF07E030A0000F30A1006E
:100FF0002E30AA002A08A200863106268731080072
:101000000A342034633475347234723465346E3487
:1010100074342034763461346C347534653420345F
:10102000733465346C3465346334743465346434D7
:1010300000340A34203472346534733465347434C3
:101040002034763461346C34753465342034733430
:1010500065346C346534633474346534643400341A
:101060000A3420344634723465347134753465344E
:101070006E34633479342034733465346C346534BD
:10108000633474346534643400340A342034643492
:1010900065346334723465346134733465342034B8
:1010A000733465346C346534633474346534643457
:1010B00000340A34203469346E3463347234653455
:1010C0006134733465342034733465346C3465347E
:1010D000633474346534643400340A342034633443
:1010E00075347234723465346E347434203473342D
:1010F00065346C346534633474346534643400347A
:08110000D03407341034273409
:10155E0008000800210097010800C2302A009100FF
:10156E000800C2302A00950008008B108B313323FF
:10157E008A310800F0007008220099000800F3007C
:10158E007308280096000800803022009800FF3073
:10159E009900080074082100DE007308DD000800C1
:1015AE0074082100E2007308E100080074082100AD
:1015BE00E0007308DF00080074082100DC007308E7
:1015CE00DB00080074082100DA007308D900080057
:1015DE0074082100D4007308D30008007408210099
:1015EE00D8007308D7000800F40074088B311D234F
:1015FE008A310800640080010131890B022B00340E
:10160E00FE0012001E00FE0B082B00346A30210073
:10161E0099009A019801220096010800FF302000DF
:10162E009B009A01911006309C000800F3002000E8
:10163E00111E222B232B1E2B730823009A00080049
:10164E008B10210015137230F3000630F4008A312E
:10165E00E3228B310B16080021005B085C04031992
:10166E00392B3A2B3F2B5C088A005B080A008B3122
:10167E000800200092102100570858040319482B27
:10168E00492B4E2B58088A0057080A008B31080048
:10169E000B11790820009500210059085A040319EE
:1016AE00592B5A2B5F2B5A088A0059080A008B3186
:1016BE00080021001508C039153895002000950145
:1016CE00F9010B118B12B030F3000A30F4008A319D
:1016DE00E9228B31080037302000B7003708B800F8
:1016EE003608AE003508AD003830B7003708AF0009
:1016FE0000308D31BE258B31080004302800960055
:10170E00950120009210210092148930F3000E30C2
:10171E00F4008A31F5228B3116302800970008002C
:10172E000034003401340034413400344634003483
:10173E004B34003450340034643400347834003484
:10174E00823400348C3400342000111021005608ED
:10175E002000970021005508200096002100530814
:10176E0054040319BB2BBC2BC12B54088A005308FD
:10177E000A008B310800F6007408031DC72BC82B16
:10178E00CB2B21008E16D02BDF30F50075082100F3
:10179E008E0574092500910076082C0098007308B8
:1017AE009B000800FF3020009700F8309600F830BC
:1017BE002100D500FF30D600200011102100111499
:1017CE00200018102630F3000C30F4008A31EF227E
:1017DE008B3108000A3400340A34003401340034EA
:1017EE0000341E34003432340034463400345A345B
:1017FE0000346E34003482340034A0340034DC34CF
:10180E000034FA34003400308B1B0130F5008B139A
:10181E007308230091007408920015131516151500
:10182E0055309600AA309600951400000000230053
:10183E001511750C031C8B1303188B170800210050
:10184E002F08031D2B2C2C2C3C2C20001810FF30A5
:10185E008A31C1228C31FF3020009700EE30960085
:10186E0018142100AF01AF0A422C2F03031D402C88
:10187E00412C422CAF010800E03084008F308500EF
:10188E000008F300F40173082100E5007408E60077
:10189E00E13084008F3085000008F300F4017308F6
:1018AE00E3007408E400E23084008F308500000805
:1018BE00F3007308FA000800083023009F009030F0
:1018CE009D0024309E0008309B009C010030F300E8
:1018DE000030F4008A31D7228C310030F300003012
:1018EE00F4008A31DD228C310030F3000030F40038
:1018FE008A31D1228C312100B3010800A0302000A2
:10190E00B9003908F300F40182308B31C2238C31D7
:10191E0082302000B900DD30890B932CB90B932C4B
:10192E000032F301F40100308B31C2238C3145308B
:10193E002000B5008830B6008B3172238C31080040
:10194E008D31EF258C318B310D238C318A31B122C3
:10195E008C318A31CB228C318A31B4228C318B314D
:10196E0084238C318A31B8228C318B31D9238C313E
:10197E008B3115238C318B3127238C318B316023A6
:10198E008C318C3163248C31080032302000B90048
:10199E003908F300FF30BA003A08F40000308B31FA
:1019AE00C2238C3182302000B900DD30890BDD2C52
:1019BE00B90BDD2C0032F301F40100308B31C22360
:1019CE008C3159302000B5008830B6008B3172232F
:1019DE008C310800F301FF302000B9003908F40003
:1019EE0064308B31C2238C3103302000BA008A3030
:1019FE00B9005530890B012DB90B012DBA0B012DF4
:101A0E000032F301F40100308B31C2238C310030EF
:101A1E002000B5008830B6008B3172238C3108005F
:101A2E00F801F80AF301FF302000B9003908F4007C
:101A3E0000308B31C2238D3106302000BA001330B6
:101A4E00B900AD30890B292DB90B292DBA0B292DD3
:101A5E000032F301F40100308B31C2238D316D3031
:101A6E002000B5008830B6008B3172238D3108000E
:101A7E0046302000B9003908F3006430BA003A0845
:101A8E00F40096308B31C2238D3103302000BA0022
:101A9E008A30B9005530890B522DB90B522DBA0B25
:101AAE00522D0032F301F40100308B31C2238D31FF
:101ABE0000302000B5008830B6008B3172238D3196
:101ACE00080002302000B9003908F8009630B9003D
:101ADE003908F300F40100308B31C2238D3106300A
:101AEE002000BA001330B900AD30890B7C2DB90B34
:101AFE007C2DBA0B7C2D0032F301F40100308B31BA
:101B0E00C2238D3130302000B5008830B6008B31C5
:101B1E0072238D31080003302000A0002008F80049
:101B2E00F301F401FF308B31C2238D3102302000DE
:101B3E00A1004530A000A930890BA32DA00BA32D29
:101B4E00A10BA32D0032F301F40100308B31C2231F
:101B5E008D3103302000A1008A30A0005530890B52
:101B6E00B62DA00BB62DA10BB62D0032080020000D
:101B7E00B2002E08B4002D08B3002100A001A1016F
:101B8E00DC2D3330B0003008A5002F08B10031082D
:101B9E00A6003208853188258D31200025082100C8
:101BAE00A007200026082100A13D20003308840054
:101BBE00340885001200031DE52DE62DC82D2100E9
:101BCE0021082000AE00210020082000AD000800F2
:101BDE0022008C018D018E01043021008C003030EA
:101BEE008D0050308E00403023008E0010308D005E
:101BFE008C0124008D018C018E012100951325008E
:101C0E008C018D018E01373026008C00F0308D0056
:101C1E00FF308E003F3027008C00F0308D00FF30FB
:101C2E008E008B1502303C0090000D30A400143055
:101C3E003D009F0008008130220097007D3021007A
:101C4E009D0090309E002200171F2E2E2F2E2A2E22
:101C5E000000000000000000000021009D149D18EF
:101C6E00392E3A2E362E1D101B082000A8002100FA
:101C7E001C082000A900AA01AB010030AF000F30F4
:101C8E00AE00FC30AD000030AC008431F8248E3153
:101C9E0020002908B8002808B70008000030F60018
:101CAE000030F5000030F4000030F3002000201C5E
:101CBE00612E622E6A2E2408F3072508F43D2608AD
:101CCE00F53D2708F63D0130A435A50DA60DA70D4F
:101CDE00890B6B2E0130A336A20CA10CA00C890B24
:101CEE00722E2308220421042004031D7F2E802E31
:101CFE005D2E7608A3007508A2007408A100730873
:101D0E00A00008007A0803198D2E8E2E932EFF3018
:101D1E008A31C1228E31C42E21003E080319982E1D
:101D2E00992E9F2EBE01FF308A31C1228E31BE2EDA
:101D3E002800160A031DA42EA52EB72E5130210001
:101D4E003106031DAB2EAC2EB22E32088A31C122C3
:101D5E008E312100B1010130F1007108B107BE2EA4
:101D6E002100BE01BE0A32088A31C1228E31FF30F7
:101D7E0020009700F830960018140800F801200093
:101D8E00A201A301B4302000A0002008F300E63029
:101D9E00A1002108F40000308B31C2238E31823035
:101DAE002000A000DD30890BDA2EA00BDA2E0032D7
:101DBE00F301F40100308B31C2238E3182302000CA
:101DCE00A000DD30890BE92EA00BE92E0032013088
:101DDE002000A2070030A33D2308803AA0008030E7
:101DEE002002031DFC2E05302202031CFF2E002FA5
:101DFE00C92E080077080319052F062F0B2F770819
:101E0E00031D0A2F0B2F102F75088A31FB228F31DD
:101E1E00402F7708033E8600870116000104031940
:101E2E00192F1A2F382F7708033E86008701403F5F
:101E3E002000A000413FA100770A86008701403FA5
:101E4E00A200413FA3002308803AA4002108803A53
:101E5E002402031D342F200822020318372F382F97
:101E6E00402F770A86008701013081074131031820
:101E7E00810A0800FF3020009B001C08FC39023844
:101E8E009C001C1521000E160E303D00A400CF3014
:101E9E0025009E052C0098013F3097051916EF304E
:101EAE00F300730821008E052C00991721008C1663
:101EBE000F303D0095003F3025009E052C009B0104
:101ECE003F309A051C16DF30F300730821008C0595
:101EDE002C009C1721008E160C303D00A50025000D
:101EEE001308F0390C389300FF3091003030930412
:101EFE00DF30F300730821008E050800B430200097
:101F0E00A0002008F300E630A1002108F400003004
:101F1E008B31C2238F3103302000A1008A30A00004
:101F2E005530890B982FA00B982FA10B982F0032AC
:101F3E00F301F40100308B31C2238F3103302000C6
:101F4E00A1008A30A0005530890BAB2FA00BAB2F10
:101F5E00A10BAB2F0032B4302000A0002008F300FC
:101F6E00E630A1002108F40000308B31C2238F31FE
:101F7E0003302000A1008A30A0005530890BC52FF8
:101F8E00A00BC52FA10BC52F0032F301F4010030B9
:101F9E008B31C2238F3103302000A1008A30A00084
:101FAE005530890BD82FA00BD82FA10BD82F00326C
:101FBE000800053403340034003400340034003497
:101FCE000034003400340034003400340034003463
:101FDE000034003400340034003400340034003453
:101FEE000034003400340034003400340034003443
:021FFE000034AD
:020000040001F9
:04000E00E421FF3EAC
:00000001FF
